:100000000C943E000C94F6000C945B000C945B0086
:100010000C945B000C945B000C945B000C945B00F4
:100020000C945B000C945B000C945B000C941D0121
:100030000C945B000C945B000C945B000C945B00D4
:100040000C945B000C945B000C945B000C945B00C4
:100050000C945B000C945B000C945B000C945B00B4
:100060000C945B000C945B00650069006D007100EE
:10007000750079007D0081008500890011241FBE74
:10008000CFEFD8E0DEBFCDBF11E0A0E0B1E0E8E106
:10009000F3E002C005900D92A431B107D9F721E039
:1000A000A4E1B1E001C01D92A232B207E1F70E94C3
:1000B00091000C948A010C9400008A30910568F537
:1000C000FC01EC5CFF4F0C948401809112018BB910
:1000D0000895809110018BB9089580910E018BB91C
:1000E000089580910C018BB9089580910A018BB914
:1000F0000895809108018BB90895809106018BB90C
:100100000895809104018BB90895809102018BB903
:100110000895809100018BB90895809112018BB9E7
:100120000895F89410928000E1E8F0E010821092B7
:1001300085001092840080E792E09093890080937C
:100140008800808188608083808184608083EFE67E
:10015000F0E0808182608083789491E09DBB84E0B0
:100160008BB98BEF8AB98FEF84B995B98BB901E15F
:1001700018E0D5E0C3E080911A0190911B01892B12
:1001800069F005B980911A0190911B010E945D00F0
:100190008FE99FE00197F1F700C0000015B9809149
:1001A0001801909119010E945D008FE99FE001976D
:1001B000F1F700C00000D5B98091160190911701A8
:1001C0000E945D008FE99FE00197F1F700C00000F9
:1001D000C5B980911401909115010E945D008FE9CD
:1001E0009FE00197F1F700C00000C5CF1F920F926A
:1001F0000FB60F9211248F939F93F8941DBA81E04C
:1002000090E090931F0180931E01809120019091B6
:100210002101892B39F481E090E0909321018093B2
:10022000200104C010922101109220019F918F9112
:100230000F900FBE0F901F9018951F920F920FB640
:100240000F9211248F939F9380911E0190911F0113
:100250000197B9F480911C0190911D0182339105A1
:100260005CF010921D0110921C0110921F0110925F
:100270001E0181E08DBB05C0019690931D01809306
:100280001C0180912001909121010197B1F580918D
:10029000140190911501019690931501809314011A
:1002A0000A975CF180911601909117010196909345
:1002B00017018093160110921501109214010A97EC
:1002C000E4F0809118019091190101969093190121
:1002D0008093180110921701109216010A976CF082
:1002E00080911A0190911B01019690931B018093BC
:1002F0001A0110921901109218019F918F910F907D
:100300000FBE0F901F901895EE0FFF1F0590F491F0
:08031000E02D0994F894FFCFE1
:1003180034FF04FF3EFF84FF94FF35FF1CFF4CFFB2
:040328003FFF06FF8E
:00000001FF
